{
	"data": {
		"bytecode": {
			"linkReferences": {},
			"object": "6080604052348015600e575f80fd5b5061019c8061001c5f395ff3fe60806040526004361061001d575f3560e01c8063f83d08ba14610021575b5f80fd5b61002961002b565b005b5f341161006d576040517f08c379a000000000000000000000000000000000000000000000000000000000815260040161006490610117565b60405180910390fd5b3373ffffffffffffffffffffffffffffffffffffffff167fac87f20a77d28ee8bbb58ec87ea8fa968b3393efae1a368fd50b767c2847391c346040516100b3919061014d565b60405180910390a2565b5f82825260208201905092915050565b7f416d6f756e74206d7573742062652067726561746572207468616e20300000005f82015250565b5f610101601d836100bd565b915061010c826100cd565b602082019050919050565b5f6020820190508181035f83015261012e816100f5565b9050919050565b5f819050919050565b61014781610135565b82525050565b5f6020820190506101605f83018461013e565b9291505056fea26469706673582212206f576e667ca2d5cae78a1153131d28aa9b1d653cbebc293070fe1f4a8e4fb53464736f6c634300081a0033",
			"opcodes": "PUSH1 0x80 PUSH1 0x40 MSTORE CALLVALUE DUP1 ISZERO PUSH1 0xE JUMPI PUSH0 DUP1 REVERT JUMPDEST POP PUSH2 0x19C DUP1 PUSH2 0x1C PUSH0 CODECOPY PUSH0 RETURN INVALID PUSH1 0x80 PUSH1 0x40 MSTORE PUSH1 0x4 CALLDATASIZE LT PUSH2 0x1D JUMPI PUSH0 CALLDATALOAD PUSH1 0xE0 SHR DUP1 PUSH4 0xF83D08BA EQ PUSH2 0x21 JUMPI JUMPDEST PUSH0 DUP1 REVERT JUMPDEST PUSH2 0x29 PUSH2 0x2B JUMP JUMPDEST STOP JUMPDEST PUSH0 CALLVALUE GT PUSH2 0x6D JUMPI PUSH1 0x40 MLOAD PUSH32 0x8C379A000000000000000000000000000000000000000000000000000000000 DUP2 MSTORE PUSH1 0x4 ADD PUSH2 0x64 SWAP1 PUSH2 0x117 JUMP JUMPDEST PUSH1 0x40 MLOAD DUP1 SWAP2 SUB SWAP1 REVERT JUMPDEST CALLER PUSH20 0xFFFFFFFFFFFFFFFFFFFFFFFFFFFFFFFFFFFFFFFF AND PUSH32 0xAC87F20A77D28EE8BBB58EC87EA8FA968B3393EFAE1A368FD50B767C2847391C CALLVALUE PUSH1 0x40 MLOAD PUSH2 0xB3 SWAP2 SWAP1 PUSH2 0x14D JUMP JUMPDEST PUSH1 0x40 MLOAD DUP1 SWAP2 SUB SWAP1 LOG2 JUMP JUMPDEST PUSH0 DUP3 DUP3 MSTORE PUSH1 0x20 DUP3 ADD SWAP1 POP SWAP3 SWAP2 POP POP JUMP JUMPDEST PUSH32 0x416D6F756E74206D7573742062652067726561746572207468616E2030000000 PUSH0 DUP3 ADD MSTORE POP JUMP JUMPDEST PUSH0 PUSH2 0x101 PUSH1 0x1D DUP4 PUSH2 0xBD JUMP JUMPDEST SWAP2 POP PUSH2 0x10C DUP3 PUSH2 0xCD JUMP JUMPDEST PUSH1 0x20 DUP3 ADD SWAP1 POP SWAP2 SWAP1 POP JUMP JUMPDEST PUSH0 PUSH1 0x20 DUP3 ADD SWAP1 POP DUP2 DUP2 SUB PUSH0 DUP4 ADD MSTORE PUSH2 0x12E DUP2 PUSH2 0xF5 JUMP JUMPDEST SWAP1 POP SWAP2 SWAP1 POP JUMP JUMPDEST PUSH0 DUP2 SWAP1 POP SWAP2 SWAP1 POP JUMP JUMPDEST PUSH2 0x147 DUP2 PUSH2 0x135 JUMP JUMPDEST DUP3 MSTORE POP POP JUMP JUMPDEST PUSH0 PUSH1 0x20 DUP3 ADD SWAP1 POP PUSH2 0x160 PUSH0 DUP4 ADD DUP5 PUSH2 0x13E JUMP JUMPDEST SWAP3 SWAP2 POP POP JUMP INVALID LOG2 PUSH5 0x6970667358 0x22 SLT KECCAK256 PUSH16 0x576E667CA2D5CAE78A1153131D28AA9B SAR PUSH6 0x3CBEBC293070 INVALID 0x1F BLOBBASEFEE DUP15 0x4F 0xB5 CALLVALUE PUSH5 0x736F6C6343 STOP ADDMOD BYTE STOP CALLER "
		},
		"gasEstimates": {
			"creation": {
				"codeDepositCost": "82400",
				"executionCost": "127",
				"totalCost": "82527"
			},
			"external": {
				"lock()": "1688"
			}
		},
		"methodIdentifiers": {
			"lock()": "f83d08ba"
		}
	},
	"abi": [
		{
			"anonymous": false,
			"inputs": [
				{
					"indexed": true,
					"internalType": "address",
					"name": "userAddress",
					"type": "address"
				},
				{
					"indexed": false,
					"internalType": "uint256",
					"name": "amount",
					"type": "uint256"
				}
			],
			"name": "TokensLocked",
			"type": "event"
		},
		{
			"inputs": [],
			"name": "lock",
			"outputs": [],
			"stateMutability": "payable",
			"type": "function"
		}
	]
}