{
	"bridging sepolia/EthBridge.sol": {
		"EthBridge": {
			"abi": [
				{
					"anonymous": false,
					"inputs": [
						{
							"indexed": true,
							"internalType": "address",
							"name": "user",
							"type": "address"
						},
						{
							"indexed": false,
							"internalType": "uint256",
							"name": "amount",
							"type": "uint256"
						}
					],
					"name": "ETHLocked",
					"type": "event"
				},
				{
					"inputs": [],
					"name": "lock",
					"outputs": [],
					"stateMutability": "payable",
					"type": "function"
				}
			],
			"devdoc": {
				"kind": "dev",
				"methods": {},
				"version": 1
			},
			"evm": {
				"assembly": "    /* \"bridging sepolia/EthBridge.sol\":61:847  contract EthBridge {... */\n  mstore(0x40, 0x80)\n  callvalue\n  dup1\n  iszero\n  tag_1\n  jumpi\n  0x00\n  dup1\n  revert\ntag_1:\n  pop\n  dataSize(sub_0)\n  dup1\n  dataOffset(sub_0)\n  0x00\n  codecopy\n  0x00\n  return\nstop\n\nsub_0: assembly {\n        /* \"bridging sepolia/EthBridge.sol\":61:847  contract EthBridge {... */\n      mstore(0x40, 0x80)\n      jumpi(tag_1, lt(calldatasize, 0x04))\n      shr(0xe0, calldataload(0x00))\n      dup1\n      0xf83d08ba\n      eq\n      tag_2\n      jumpi\n    tag_1:\n      0x00\n      dup1\n      revert\n        /* \"bridging sepolia/EthBridge.sol\":494:844  function lock() public payable {... */\n    tag_2:\n      tag_3\n      tag_4\n      jump\t// in\n    tag_3:\n      stop\n    tag_4:\n        /* \"bridging sepolia/EthBridge.sol\":622:623  0 */\n      0x00\n        /* \"bridging sepolia/EthBridge.sol\":610:619  msg.value */\n      callvalue\n        /* \"bridging sepolia/EthBridge.sol\":610:623  msg.value > 0 */\n      gt\n        /* \"bridging sepolia/EthBridge.sol\":602:646  require(msg.value > 0, \"Cannot lock 0 ETH.\") */\n      tag_6\n      jumpi\n      mload(0x40)\n      0x08c379a000000000000000000000000000000000000000000000000000000000\n      dup2\n      mstore\n      0x04\n      add\n      tag_7\n      swap1\n      tag_8\n      jump\t// in\n    tag_7:\n      mload(0x40)\n      dup1\n      swap2\n      sub\n      swap1\n      revert\n    tag_6:\n        /* \"bridging sepolia/EthBridge.sol\":814:824  msg.sender */\n      caller\n        /* \"bridging sepolia/EthBridge.sol\":804:836  ETHLocked(msg.sender, msg.value) */\n      0xffffffffffffffffffffffffffffffffffffffff\n      and\n      0x97efc519b9020a140ffe13878e03d340b976676090bc7fe3e33191192df7c72c\n        /* \"bridging sepolia/EthBridge.sol\":826:835  msg.value */\n      callvalue\n        /* \"bridging sepolia/EthBridge.sol\":804:836  ETHLocked(msg.sender, msg.value) */\n      mload(0x40)\n      tag_9\n      swap2\n      swap1\n      tag_10\n      jump\t// in\n    tag_9:\n      mload(0x40)\n      dup1\n      swap2\n      sub\n      swap1\n      log2\n        /* \"bridging sepolia/EthBridge.sol\":494:844  function lock() public payable {... */\n      jump\t// out\n        /* \"#utility.yul\":7:176   */\n    tag_11:\n        /* \"#utility.yul\":91:102   */\n      0x00\n        /* \"#utility.yul\":125:131   */\n      dup3\n        /* \"#utility.yul\":120:123   */\n      dup3\n        /* \"#utility.yul\":113:132   */\n      mstore\n        /* \"#utility.yul\":165:169   */\n      0x20\n        /* \"#utility.yul\":160:163   */\n      dup3\n        /* \"#utility.yul\":156:170   */\n      add\n        /* \"#utility.yul\":141:170   */\n      swap1\n      pop\n        /* \"#utility.yul\":7:176   */\n      swap3\n      swap2\n      pop\n      pop\n      jump\t// out\n        /* \"#utility.yul\":182:350   */\n    tag_12:\n        /* \"#utility.yul\":322:342   */\n      0x43616e6e6f74206c6f636b2030204554482e0000000000000000000000000000\n        /* \"#utility.yul\":318:319   */\n      0x00\n        /* \"#utility.yul\":310:316   */\n      dup3\n        /* \"#utility.yul\":306:320   */\n      add\n        /* \"#utility.yul\":299:343   */\n      mstore\n        /* \"#utility.yul\":182:350   */\n      pop\n      jump\t// out\n        /* \"#utility.yul\":356:722   */\n    tag_13:\n        /* \"#utility.yul\":498:501   */\n      0x00\n        /* \"#utility.yul\":519:586   */\n      tag_20\n        /* \"#utility.yul\":583:585   */\n      0x12\n        /* \"#utility.yul\":578:581   */\n      dup4\n        /* \"#utility.yul\":519:586   */\n      tag_11\n      jump\t// in\n    tag_20:\n        /* \"#utility.yul\":512:586   */\n      swap2\n      pop\n        /* \"#utility.yul\":595:688   */\n      tag_21\n        /* \"#utility.yul\":684:687   */\n      dup3\n        /* \"#utility.yul\":595:688   */\n      tag_12\n      jump\t// in\n    tag_21:\n        /* \"#utility.yul\":713:715   */\n      0x20\n        /* \"#utility.yul\":708:711   */\n      dup3\n        /* \"#utility.yul\":704:716   */\n      add\n        /* \"#utility.yul\":697:716   */\n      swap1\n      pop\n        /* \"#utility.yul\":356:722   */\n      swap2\n      swap1\n      pop\n      jump\t// out\n        /* \"#utility.yul\":728:1147   */\n    tag_8:\n        /* \"#utility.yul\":894:898   */\n      0x00\n        /* \"#utility.yul\":932:934   */\n      0x20\n        /* \"#utility.yul\":921:930   */\n      dup3\n        /* \"#utility.yul\":917:935   */\n      add\n        /* \"#utility.yul\":909:935   */\n      swap1\n      pop\n        /* \"#utility.yul\":981:990   */\n      dup2\n        /* \"#utility.yul\":975:979   */\n      dup2\n        /* \"#utility.yul\":971:991   */\n      sub\n        /* \"#utility.yul\":967:968   */\n      0x00\n        /* \"#utility.yul\":956:965   */\n      dup4\n        /* \"#utility.yul\":952:969   */\n      add\n        /* \"#utility.yul\":945:992   */\n      mstore\n        /* \"#utility.yul\":1009:1140   */\n      tag_23\n        /* \"#utility.yul\":1135:1139   */\n      dup2\n        /* \"#utility.yul\":1009:1140   */\n      tag_13\n      jump\t// in\n    tag_23:\n        /* \"#utility.yul\":1001:1140   */\n      swap1\n      pop\n        /* \"#utility.yul\":728:1147   */\n      swap2\n      swap1\n      pop\n      jump\t// out\n        /* \"#utility.yul\":1153:1230   */\n    tag_14:\n        /* \"#utility.yul\":1190:1197   */\n      0x00\n        /* \"#utility.yul\":1219:1224   */\n      dup2\n        /* \"#utility.yul\":1208:1224   */\n      swap1\n      pop\n        /* \"#utility.yul\":1153:1230   */\n      swap2\n      swap1\n      pop\n      jump\t// out\n        /* \"#utility.yul\":1236:1354   */\n    tag_15:\n        /* \"#utility.yul\":1323:1347   */\n      tag_26\n        /* \"#utility.yul\":1341:1346   */\n      dup2\n        /* \"#utility.yul\":1323:1347   */\n      tag_14\n      jump\t// in\n    tag_26:\n        /* \"#utility.yul\":1318:1321   */\n      dup3\n        /* \"#utility.yul\":1311:1348   */\n      mstore\n        /* \"#utility.yul\":1236:1354   */\n      pop\n      pop\n      jump\t// out\n        /* \"#utility.yul\":1360:1582   */\n    tag_10:\n        /* \"#utility.yul\":1453:1457   */\n      0x00\n        /* \"#utility.yul\":1491:1493   */\n      0x20\n        /* \"#utility.yul\":1480:1489   */\n      dup3\n        /* \"#utility.yul\":1476:1494   */\n      add\n        /* \"#utility.yul\":1468:1494   */\n      swap1\n      pop\n        /* \"#utility.yul\":1504:1575   */\n      tag_28\n        /* \"#utility.yul\":1572:1573   */\n      0x00\n        /* \"#utility.yul\":1561:1570   */\n      dup4\n        /* \"#utility.yul\":1557:1574   */\n      add\n        /* \"#utility.yul\":1548:1554   */\n      dup5\n        /* \"#utility.yul\":1504:1575   */\n      tag_15\n      jump\t// in\n    tag_28:\n        /* \"#utility.yul\":1360:1582   */\n      swap3\n      swap2\n      pop\n      pop\n      jump\t// out\n\n    auxdata: 0xa26469706673582212201a9f2130acb894d3d101cfc1af832f7207d61eaff1d8676ce131ef131d0897ca64736f6c634300081a0033\n}\n",
				"bytecode": {
					"linkReferences": {},
					"object": "6080604052348015600e575f80fd5b5061019c8061001c5f395ff3fe60806040526004361061001d575f3560e01c8063f83d08ba14610021575b5f80fd5b61002961002b565b005b5f341161006d576040517f08c379a000000000000000000000000000000000000000000000000000000000815260040161006490610117565b60405180910390fd5b3373ffffffffffffffffffffffffffffffffffffffff167f97efc519b9020a140ffe13878e03d340b976676090bc7fe3e33191192df7c72c346040516100b3919061014d565b60405180910390a2565b5f82825260208201905092915050565b7f43616e6e6f74206c6f636b2030204554482e00000000000000000000000000005f82015250565b5f6101016012836100bd565b915061010c826100cd565b602082019050919050565b5f6020820190508181035f83015261012e816100f5565b9050919050565b5f819050919050565b61014781610135565b82525050565b5f6020820190506101605f83018461013e565b9291505056fea26469706673582212201a9f2130acb894d3d101cfc1af832f7207d61eaff1d8676ce131ef131d0897ca64736f6c634300081a0033",
					"opcodes": "PUSH1 0x80 PUSH1 0x40 MSTORE CALLVALUE DUP1 ISZERO PUSH1 0xE JUMPI PUSH0 DUP1 REVERT JUMPDEST POP PUSH2 0x19C DUP1 PUSH2 0x1C PUSH0 CODECOPY PUSH0 RETURN INVALID PUSH1 0x80 PUSH1 0x40 MSTORE PUSH1 0x4 CALLDATASIZE LT PUSH2 0x1D JUMPI PUSH0 CALLDATALOAD PUSH1 0xE0 SHR DUP1 PUSH4 0xF83D08BA EQ PUSH2 0x21 JUMPI JUMPDEST PUSH0 DUP1 REVERT JUMPDEST PUSH2 0x29 PUSH2 0x2B JUMP JUMPDEST STOP JUMPDEST PUSH0 CALLVALUE GT PUSH2 0x6D JUMPI PUSH1 0x40 MLOAD PUSH32 0x8C379A000000000000000000000000000000000000000000000000000000000 DUP2 MSTORE PUSH1 0x4 ADD PUSH2 0x64 SWAP1 PUSH2 0x117 JUMP JUMPDEST PUSH1 0x40 MLOAD DUP1 SWAP2 SUB SWAP1 REVERT JUMPDEST CALLER PUSH20 0xFFFFFFFFFFFFFFFFFFFFFFFFFFFFFFFFFFFFFFFF AND PUSH32 0x97EFC519B9020A140FFE13878E03D340B976676090BC7FE3E33191192DF7C72C CALLVALUE PUSH1 0x40 MLOAD PUSH2 0xB3 SWAP2 SWAP1 PUSH2 0x14D JUMP JUMPDEST PUSH1 0x40 MLOAD DUP1 SWAP2 SUB SWAP1 LOG2 JUMP JUMPDEST PUSH0 DUP3 DUP3 MSTORE PUSH1 0x20 DUP3 ADD SWAP1 POP SWAP3 SWAP2 POP POP JUMP JUMPDEST PUSH32 0x43616E6E6F74206C6F636B2030204554482E0000000000000000000000000000 PUSH0 DUP3 ADD MSTORE POP JUMP JUMPDEST PUSH0 PUSH2 0x101 PUSH1 0x12 DUP4 PUSH2 0xBD JUMP JUMPDEST SWAP2 POP PUSH2 0x10C DUP3 PUSH2 0xCD JUMP JUMPDEST PUSH1 0x20 DUP3 ADD SWAP1 POP SWAP2 SWAP1 POP JUMP JUMPDEST PUSH0 PUSH1 0x20 DUP3 ADD SWAP1 POP DUP2 DUP2 SUB PUSH0 DUP4 ADD MSTORE PUSH2 0x12E DUP2 PUSH2 0xF5 JUMP JUMPDEST SWAP1 POP SWAP2 SWAP1 POP JUMP JUMPDEST PUSH0 DUP2 SWAP1 POP SWAP2 SWAP1 POP JUMP JUMPDEST PUSH2 0x147 DUP2 PUSH2 0x135 JUMP JUMPDEST DUP3 MSTORE POP POP JUMP JUMPDEST PUSH0 PUSH1 0x20 DUP3 ADD SWAP1 POP PUSH2 0x160 PUSH0 DUP4 ADD DUP5 PUSH2 0x13E JUMP JUMPDEST SWAP3 SWAP2 POP POP JUMP INVALID LOG2 PUSH5 0x6970667358 0x22 SLT KECCAK256 BYTE SWAP16 0x21 ADDRESS 0xAC 0xB8 SWAP5 0xD3 0xD1 ADD 0xCF 0xC1 0xAF DUP4 0x2F PUSH19 0x7D61EAFF1D8676CE131EF131D0897CA64736F PUSH13 0x634300081A0033000000000000 "
				},
				"gasEstimates": {
					"creation": {
						"codeDepositCost": "82400",
						"executionCost": "127",
						"totalCost": "82527"
					},
					"external": {
						"lock()": "1688"
					}
				},
				"methodIdentifiers": {
					"lock()": "f83d08ba"
				}
			},
			"storageLayout": {
				"storage": [],
				"types": null
			},
			"userdoc": {
				"kind": "user",
				"methods": {},
				"version": 1
			}
		}
	}
}