{
	"revision.sol": {
		"sum": {
			"abi": [
				{
					"inputs": [],
					"name": "a",
					"outputs": [
						{
							"internalType": "uint256",
							"name": "",
							"type": "uint256"
						}
					],
					"stateMutability": "view",
					"type": "function"
				},
				{
					"inputs": [],
					"name": "add",
					"outputs": [
						{
							"internalType": "uint256",
							"name": "",
							"type": "uint256"
						}
					],
					"stateMutability": "view",
					"type": "function"
				},
				{
					"inputs": [],
					"name": "b",
					"outputs": [
						{
							"internalType": "uint256",
							"name": "",
							"type": "uint256"
						}
					],
					"stateMutability": "view",
					"type": "function"
				},
				{
					"inputs": [],
					"name": "result",
					"outputs": [
						{
							"internalType": "uint256",
							"name": "",
							"type": "uint256"
						}
					],
					"stateMutability": "view",
					"type": "function"
				}
			],
			"devdoc": {
				"kind": "dev",
				"methods": {},
				"version": 1
			},
			"evm": {
				"assembly": "    /* \"revision.sol\":60:252  contract sum {... */\n  mstore(0x40, 0x80)\n    /* \"revision.sol\":99:101  23 */\n  0x17\n    /* \"revision.sol\":80:101  uint256 public a = 23 */\n  0x00\n  sstore\n    /* \"revision.sol\":127:129  34 */\n  0x22\n    /* \"revision.sol\":108:129  uint256 public b = 34 */\n  0x01\n  sstore\n    /* \"revision.sol\":159:160  b */\n  sload(0x01)\n    /* \"revision.sol\":157:158  a */\n  sload(0x00)\n    /* \"revision.sol\":157:160  a+b */\n  tag_1\n  swap2\n  swap1\n  tag_2\n  jump\t// in\ntag_1:\n    /* \"revision.sol\":136:160  uint256 public add = a+b */\n  0x02\n  sstore\n    /* \"revision.sol\":60:252  contract sum {... */\n  callvalue\n  dup1\n  iszero\n  tag_3\n  jumpi\n  0x00\n  dup1\n  revert\ntag_3:\n  pop\n  jump(tag_4)\n    /* \"#utility.yul\":7:84   */\ntag_5:\n    /* \"#utility.yul\":44:51   */\n  0x00\n    /* \"#utility.yul\":73:78   */\n  dup2\n    /* \"#utility.yul\":62:78   */\n  swap1\n  pop\n    /* \"#utility.yul\":7:84   */\n  swap2\n  swap1\n  pop\n  jump\t// out\n    /* \"#utility.yul\":90:270   */\ntag_6:\n    /* \"#utility.yul\":138:215   */\n  0x4e487b7100000000000000000000000000000000000000000000000000000000\n    /* \"#utility.yul\":135:136   */\n  0x00\n    /* \"#utility.yul\":128:216   */\n  mstore\n    /* \"#utility.yul\":235:239   */\n  0x11\n    /* \"#utility.yul\":232:233   */\n  0x04\n    /* \"#utility.yul\":225:240   */\n  mstore\n    /* \"#utility.yul\":259:263   */\n  0x24\n    /* \"#utility.yul\":256:257   */\n  0x00\n    /* \"#utility.yul\":249:264   */\n  revert\n    /* \"#utility.yul\":276:467   */\ntag_2:\n    /* \"#utility.yul\":316:319   */\n  0x00\n    /* \"#utility.yul\":335:355   */\n  tag_11\n    /* \"#utility.yul\":353:354   */\n  dup3\n    /* \"#utility.yul\":335:355   */\n  tag_5\n  jump\t// in\ntag_11:\n    /* \"#utility.yul\":330:355   */\n  swap2\n  pop\n    /* \"#utility.yul\":369:389   */\n  tag_12\n    /* \"#utility.yul\":387:388   */\n  dup4\n    /* \"#utility.yul\":369:389   */\n  tag_5\n  jump\t// in\ntag_12:\n    /* \"#utility.yul\":364:389   */\n  swap3\n  pop\n    /* \"#utility.yul\":412:413   */\n  dup3\n    /* \"#utility.yul\":409:410   */\n  dup3\n    /* \"#utility.yul\":405:414   */\n  add\n    /* \"#utility.yul\":398:414   */\n  swap1\n  pop\n    /* \"#utility.yul\":433:436   */\n  dup1\n    /* \"#utility.yul\":430:431   */\n  dup3\n    /* \"#utility.yul\":427:437   */\n  gt\n    /* \"#utility.yul\":424:460   */\n  iszero\n  tag_13\n  jumpi\n    /* \"#utility.yul\":440:458   */\n  tag_14\n  tag_6\n  jump\t// in\ntag_14:\n    /* \"#utility.yul\":424:460   */\ntag_13:\n    /* \"#utility.yul\":276:467   */\n  swap3\n  swap2\n  pop\n  pop\n  jump\t// out\n    /* \"revision.sol\":60:252  contract sum {... */\ntag_4:\n  dataSize(sub_0)\n  dup1\n  dataOffset(sub_0)\n  0x00\n  codecopy\n  0x00\n  return\nstop\n\nsub_0: assembly {\n        /* \"revision.sol\":60:252  contract sum {... */\n      mstore(0x40, 0x80)\n      callvalue\n      dup1\n      iszero\n      tag_1\n      jumpi\n      0x00\n      dup1\n      revert\n    tag_1:\n      pop\n      jumpi(tag_2, lt(calldatasize, 0x04))\n      shr(0xe0, calldataload(0x00))\n      dup1\n      0x0dbe671f\n      eq\n      tag_3\n      jumpi\n      dup1\n      0x4df7e3d0\n      eq\n      tag_4\n      jumpi\n      dup1\n      0x4f2be91f\n      eq\n      tag_5\n      jumpi\n      dup1\n      0x65372147\n      eq\n      tag_6\n      jumpi\n    tag_2:\n      0x00\n      dup1\n      revert\n        /* \"revision.sol\":80:101  uint256 public a = 23 */\n    tag_3:\n      tag_7\n      tag_8\n      jump\t// in\n    tag_7:\n      mload(0x40)\n      tag_9\n      swap2\n      swap1\n      tag_10\n      jump\t// in\n    tag_9:\n      mload(0x40)\n      dup1\n      swap2\n      sub\n      swap1\n      return\n        /* \"revision.sol\":108:129  uint256 public b = 34 */\n    tag_4:\n      tag_11\n      tag_12\n      jump\t// in\n    tag_11:\n      mload(0x40)\n      tag_13\n      swap2\n      swap1\n      tag_10\n      jump\t// in\n    tag_13:\n      mload(0x40)\n      dup1\n      swap2\n      sub\n      swap1\n      return\n        /* \"revision.sol\":136:160  uint256 public add = a+b */\n    tag_5:\n      tag_14\n      tag_15\n      jump\t// in\n    tag_14:\n      mload(0x40)\n      tag_16\n      swap2\n      swap1\n      tag_10\n      jump\t// in\n    tag_16:\n      mload(0x40)\n      dup1\n      swap2\n      sub\n      swap1\n      return\n        /* \"revision.sol\":167:249  function result() public view returns (uint256)... */\n    tag_6:\n      tag_17\n      tag_18\n      jump\t// in\n    tag_17:\n      mload(0x40)\n      tag_19\n      swap2\n      swap1\n      tag_10\n      jump\t// in\n    tag_19:\n      mload(0x40)\n      dup1\n      swap2\n      sub\n      swap1\n      return\n        /* \"revision.sol\":80:101  uint256 public a = 23 */\n    tag_8:\n      sload(0x00)\n      dup2\n      jump\t// out\n        /* \"revision.sol\":108:129  uint256 public b = 34 */\n    tag_12:\n      sload(0x01)\n      dup2\n      jump\t// out\n        /* \"revision.sol\":136:160  uint256 public add = a+b */\n    tag_15:\n      sload(0x02)\n      dup2\n      jump\t// out\n        /* \"revision.sol\":167:249  function result() public view returns (uint256)... */\n    tag_18:\n        /* \"revision.sol\":206:213  uint256 */\n      0x00\n        /* \"revision.sol\":238:241  add */\n      sload(0x02)\n        /* \"revision.sol\":231:241  return add */\n      swap1\n      pop\n        /* \"revision.sol\":167:249  function result() public view returns (uint256)... */\n      swap1\n      jump\t// out\n        /* \"#utility.yul\":7:84   */\n    tag_21:\n        /* \"#utility.yul\":44:51   */\n      0x00\n        /* \"#utility.yul\":73:78   */\n      dup2\n        /* \"#utility.yul\":62:78   */\n      swap1\n      pop\n        /* \"#utility.yul\":7:84   */\n      swap2\n      swap1\n      pop\n      jump\t// out\n        /* \"#utility.yul\":90:208   */\n    tag_22:\n        /* \"#utility.yul\":177:201   */\n      tag_26\n        /* \"#utility.yul\":195:200   */\n      dup2\n        /* \"#utility.yul\":177:201   */\n      tag_21\n      jump\t// in\n    tag_26:\n        /* \"#utility.yul\":172:175   */\n      dup3\n        /* \"#utility.yul\":165:202   */\n      mstore\n        /* \"#utility.yul\":90:208   */\n      pop\n      pop\n      jump\t// out\n        /* \"#utility.yul\":214:436   */\n    tag_10:\n        /* \"#utility.yul\":307:311   */\n      0x00\n        /* \"#utility.yul\":345:347   */\n      0x20\n        /* \"#utility.yul\":334:343   */\n      dup3\n        /* \"#utility.yul\":330:348   */\n      add\n        /* \"#utility.yul\":322:348   */\n      swap1\n      pop\n        /* \"#utility.yul\":358:429   */\n      tag_28\n        /* \"#utility.yul\":426:427   */\n      0x00\n        /* \"#utility.yul\":415:424   */\n      dup4\n        /* \"#utility.yul\":411:428   */\n      add\n        /* \"#utility.yul\":402:408   */\n      dup5\n        /* \"#utility.yul\":358:429   */\n      tag_22\n      jump\t// in\n    tag_28:\n        /* \"#utility.yul\":214:436   */\n      swap3\n      swap2\n      pop\n      pop\n      jump\t// out\n\n    auxdata: 0xa264697066735822122017a0d34315a88c45ab7423099e4bc947933ea240f4c9b18b83298867712a231764736f6c634300081a0033\n}\n",
				"bytecode": {
					"linkReferences": {},
					"object": "608060405260175f5560226001556001545f54601a91906062565b6002553480156027575f80fd5b50608e565b5f819050919050565b7f4e487b71000000000000000000000000000000000000000000000000000000005f52601160045260245ffd5b5f606a82602c565b9150607383602c565b925082820190508082111560885760876035565b5b92915050565b6101478061009b5f395ff3fe608060405234801561000f575f80fd5b506004361061004a575f3560e01c80630dbe671f1461004e5780634df7e3d01461006c5780634f2be91f1461008a57806365372147146100a8575b5f80fd5b6100566100c6565b60405161006391906100f8565b60405180910390f35b6100746100cb565b60405161008191906100f8565b60405180910390f35b6100926100d1565b60405161009f91906100f8565b60405180910390f35b6100b06100d7565b6040516100bd91906100f8565b60405180910390f35b5f5481565b60015481565b60025481565b5f600254905090565b5f819050919050565b6100f2816100e0565b82525050565b5f60208201905061010b5f8301846100e9565b9291505056fea264697066735822122017a0d34315a88c45ab7423099e4bc947933ea240f4c9b18b83298867712a231764736f6c634300081a0033",
					"opcodes": "PUSH1 0x80 PUSH1 0x40 MSTORE PUSH1 0x17 PUSH0 SSTORE PUSH1 0x22 PUSH1 0x1 SSTORE PUSH1 0x1 SLOAD PUSH0 SLOAD PUSH1 0x1A SWAP2 SWAP1 PUSH1 0x62 JUMP JUMPDEST PUSH1 0x2 SSTORE CALLVALUE DUP1 ISZERO PUSH1 0x27 JUMPI PUSH0 DUP1 REVERT JUMPDEST POP PUSH1 0x8E JUMP JUMPDEST PUSH0 DUP2 SWAP1 POP SWAP2 SWAP1 POP JUMP JUMPDEST PUSH32 0x4E487B7100000000000000000000000000000000000000000000000000000000 PUSH0 MSTORE PUSH1 0x11 PUSH1 0x4 MSTORE PUSH1 0x24 PUSH0 REVERT JUMPDEST PUSH0 PUSH1 0x6A DUP3 PUSH1 0x2C JUMP JUMPDEST SWAP2 POP PUSH1 0x73 DUP4 PUSH1 0x2C JUMP JUMPDEST SWAP3 POP DUP3 DUP3 ADD SWAP1 POP DUP1 DUP3 GT ISZERO PUSH1 0x88 JUMPI PUSH1 0x87 PUSH1 0x35 JUMP JUMPDEST JUMPDEST SWAP3 SWAP2 POP POP JUMP JUMPDEST PUSH2 0x147 DUP1 PUSH2 0x9B PUSH0 CODECOPY PUSH0 RETURN INVALID PUSH1 0x80 PUSH1 0x40 MSTORE CALLVALUE DUP1 ISZERO PUSH2 0xF JUMPI PUSH0 DUP1 REVERT JUMPDEST POP PUSH1 0x4 CALLDATASIZE LT PUSH2 0x4A JUMPI PUSH0 CALLDATALOAD PUSH1 0xE0 SHR DUP1 PUSH4 0xDBE671F EQ PUSH2 0x4E JUMPI DUP1 PUSH4 0x4DF7E3D0 EQ PUSH2 0x6C JUMPI DUP1 PUSH4 0x4F2BE91F EQ PUSH2 0x8A JUMPI DUP1 PUSH4 0x65372147 EQ PUSH2 0xA8 JUMPI JUMPDEST PUSH0 DUP1 REVERT JUMPDEST PUSH2 0x56 PUSH2 0xC6 JUMP JUMPDEST PUSH1 0x40 MLOAD PUSH2 0x63 SWAP2 SWAP1 PUSH2 0xF8 JUMP JUMPDEST PUSH1 0x40 MLOAD DUP1 SWAP2 SUB SWAP1 RETURN JUMPDEST PUSH2 0x74 PUSH2 0xCB JUMP JUMPDEST PUSH1 0x40 MLOAD PUSH2 0x81 SWAP2 SWAP1 PUSH2 0xF8 JUMP JUMPDEST PUSH1 0x40 MLOAD DUP1 SWAP2 SUB SWAP1 RETURN JUMPDEST PUSH2 0x92 PUSH2 0xD1 JUMP JUMPDEST PUSH1 0x40 MLOAD PUSH2 0x9F SWAP2 SWAP1 PUSH2 0xF8 JUMP JUMPDEST PUSH1 0x40 MLOAD DUP1 SWAP2 SUB SWAP1 RETURN JUMPDEST PUSH2 0xB0 PUSH2 0xD7 JUMP JUMPDEST PUSH1 0x40 MLOAD PUSH2 0xBD SWAP2 SWAP1 PUSH2 0xF8 JUMP JUMPDEST PUSH1 0x40 MLOAD DUP1 SWAP2 SUB SWAP1 RETURN JUMPDEST PUSH0 SLOAD DUP2 JUMP JUMPDEST PUSH1 0x1 SLOAD DUP2 JUMP JUMPDEST PUSH1 0x2 SLOAD DUP2 JUMP JUMPDEST PUSH0 PUSH1 0x2 SLOAD SWAP1 POP SWAP1 JUMP JUMPDEST PUSH0 DUP2 SWAP1 POP SWAP2 SWAP1 POP JUMP JUMPDEST PUSH2 0xF2 DUP2 PUSH2 0xE0 JUMP JUMPDEST DUP3 MSTORE POP POP JUMP JUMPDEST PUSH0 PUSH1 0x20 DUP3 ADD SWAP1 POP PUSH2 0x10B PUSH0 DUP4 ADD DUP5 PUSH2 0xE9 JUMP JUMPDEST SWAP3 SWAP2 POP POP JUMP INVALID LOG2 PUSH5 0x6970667358 0x22 SLT KECCAK256 OR LOG0 0xD3 NUMBER ISZERO 0xA8 DUP13 GASLIMIT 0xAB PUSH21 0x23099E4BC947933EA240F4C9B18B83298867712A23 OR PUSH5 0x736F6C6343 STOP ADDMOD BYTE STOP CALLER "
				},
				"gasEstimates": {
					"creation": {
						"codeDepositCost": "65400",
						"executionCost": "infinite",
						"totalCost": "infinite"
					},
					"external": {
						"a()": "2402",
						"add()": "2447",
						"b()": "2425",
						"result()": "2476"
					}
				},
				"methodIdentifiers": {
					"a()": "0dbe671f",
					"add()": "4f2be91f",
					"b()": "4df7e3d0",
					"result()": "65372147"
				}
			},
			"storageLayout": {
				"storage": [
					{
						"astId": 4,
						"contract": "revision.sol:sum",
						"label": "a",
						"offset": 0,
						"slot": "0",
						"type": "t_uint256"
					},
					{
						"astId": 7,
						"contract": "revision.sol:sum",
						"label": "b",
						"offset": 0,
						"slot": "1",
						"type": "t_uint256"
					},
					{
						"astId": 12,
						"contract": "revision.sol:sum",
						"label": "add",
						"offset": 0,
						"slot": "2",
						"type": "t_uint256"
					}
				],
				"types": {
					"t_uint256": {
						"encoding": "inplace",
						"label": "uint256",
						"numberOfBytes": "32"
					}
				}
			},
			"userdoc": {
				"kind": "user",
				"methods": {},
				"version": 1
			}
		}
	}
}