{
	"data": {
		"bytecode": {
			"linkReferences": {},
			"object": "6080604052348015600e575f80fd5b506105018061001c5f395ff3fe608060405234801561000f575f80fd5b506004361061003f575f3560e01c80638ed70d5614610043578063d42e5dc414610073578063e2a290ab146100a3575b5f80fd5b61005d6004803603810190610058919061038d565b6100d3565b60405161006a919061041d565b60405180910390f35b61008d6004803603810190610088919061038d565b6100ef565b60405161009a919061041d565b60405180910390f35b6100bd60048036038101906100b8919061038d565b6101c1565b6040516100ca919061041d565b60405180910390f35b5f6100e7828461021990919063ffffffff16565b905092915050565b5f808390505f839050805182511461010b575f925050506101bb565b5f5b82518110156101b35781818151811061012957610128610436565b5b602001015160f81c60f81b7effffffffffffffffffffffffffffffffffffffffffffffffffffffffffffff191683828151811061016957610168610436565b5b602001015160f81c60f81b7effffffffffffffffffffffffffffffffffffffffffffffffffffffffffffff1916146101a6575f93505050506101bb565b808060010191505061010d565b506001925050505b92915050565b5f816040516020016101d391906104b5565b60405160208183030381529060405280519060200120836040516020016101fa91906104b5565b6040516020818303038152906040528051906020012014905092915050565b5f81518351148015610238575081805190602001208380519060200120145b905092915050565b5f604051905090565b5f80fd5b5f80fd5b5f80fd5b5f80fd5b5f601f19601f8301169050919050565b7f4e487b71000000000000000000000000000000000000000000000000000000005f52604160045260245ffd5b61029f82610259565b810181811067ffffffffffffffff821117156102be576102bd610269565b5b80604052505050565b5f6102d0610240565b90506102dc8282610296565b919050565b5f67ffffffffffffffff8211156102fb576102fa610269565b5b61030482610259565b9050602081019050919050565b828183375f83830152505050565b5f61033161032c846102e1565b6102c7565b90508281526020810184848401111561034d5761034c610255565b5b610358848285610311565b509392505050565b5f82601f83011261037457610373610251565b5b813561038484826020860161031f565b91505092915050565b5f80604083850312156103a3576103a2610249565b5b5f83013567ffffffffffffffff8111156103c0576103bf61024d565b5b6103cc85828601610360565b925050602083013567ffffffffffffffff8111156103ed576103ec61024d565b5b6103f985828601610360565b9150509250929050565b5f8115159050919050565b61041781610403565b82525050565b5f6020820190506104305f83018461040e565b92915050565b7f4e487b71000000000000000000000000000000000000000000000000000000005f52603260045260245ffd5b5f81519050919050565b5f81905092915050565b8281835e5f83830152505050565b5f61048f82610463565b610499818561046d565b93506104a9818560208601610477565b80840191505092915050565b5f6104c08284610485565b91508190509291505056fea2646970667358221220dd756dad76d0228f7414e9b67a26727f285f71afe41bb7b5b83605e9b4bf1f1d64736f6c634300081a0033",
			"opcodes": "PUSH1 0x80 PUSH1 0x40 MSTORE CALLVALUE DUP1 ISZERO PUSH1 0xE JUMPI PUSH0 DUP1 REVERT JUMPDEST POP PUSH2 0x501 DUP1 PUSH2 0x1C PUSH0 CODECOPY PUSH0 RETURN INVALID PUSH1 0x80 PUSH1 0x40 MSTORE CALLVALUE DUP1 ISZERO PUSH2 0xF JUMPI PUSH0 DUP1 REVERT JUMPDEST POP PUSH1 0x4 CALLDATASIZE LT PUSH2 0x3F JUMPI PUSH0 CALLDATALOAD PUSH1 0xE0 SHR DUP1 PUSH4 0x8ED70D56 EQ PUSH2 0x43 JUMPI DUP1 PUSH4 0xD42E5DC4 EQ PUSH2 0x73 JUMPI DUP1 PUSH4 0xE2A290AB EQ PUSH2 0xA3 JUMPI JUMPDEST PUSH0 DUP1 REVERT JUMPDEST PUSH2 0x5D PUSH1 0x4 DUP1 CALLDATASIZE SUB DUP2 ADD SWAP1 PUSH2 0x58 SWAP2 SWAP1 PUSH2 0x38D JUMP JUMPDEST PUSH2 0xD3 JUMP JUMPDEST PUSH1 0x40 MLOAD PUSH2 0x6A SWAP2 SWAP1 PUSH2 0x41D JUMP JUMPDEST PUSH1 0x40 MLOAD DUP1 SWAP2 SUB SWAP1 RETURN JUMPDEST PUSH2 0x8D PUSH1 0x4 DUP1 CALLDATASIZE SUB DUP2 ADD SWAP1 PUSH2 0x88 SWAP2 SWAP1 PUSH2 0x38D JUMP JUMPDEST PUSH2 0xEF JUMP JUMPDEST PUSH1 0x40 MLOAD PUSH2 0x9A SWAP2 SWAP1 PUSH2 0x41D JUMP JUMPDEST PUSH1 0x40 MLOAD DUP1 SWAP2 SUB SWAP1 RETURN JUMPDEST PUSH2 0xBD PUSH1 0x4 DUP1 CALLDATASIZE SUB DUP2 ADD SWAP1 PUSH2 0xB8 SWAP2 SWAP1 PUSH2 0x38D JUMP JUMPDEST PUSH2 0x1C1 JUMP JUMPDEST PUSH1 0x40 MLOAD PUSH2 0xCA SWAP2 SWAP1 PUSH2 0x41D JUMP JUMPDEST PUSH1 0x40 MLOAD DUP1 SWAP2 SUB SWAP1 RETURN JUMPDEST PUSH0 PUSH2 0xE7 DUP3 DUP5 PUSH2 0x219 SWAP1 SWAP2 SWAP1 PUSH4 0xFFFFFFFF AND JUMP JUMPDEST SWAP1 POP SWAP3 SWAP2 POP POP JUMP JUMPDEST PUSH0 DUP1 DUP4 SWAP1 POP PUSH0 DUP4 SWAP1 POP DUP1 MLOAD DUP3 MLOAD EQ PUSH2 0x10B JUMPI PUSH0 SWAP3 POP POP POP PUSH2 0x1BB JUMP JUMPDEST PUSH0 JUMPDEST DUP3 MLOAD DUP2 LT ISZERO PUSH2 0x1B3 JUMPI DUP2 DUP2 DUP2 MLOAD DUP2 LT PUSH2 0x129 JUMPI PUSH2 0x128 PUSH2 0x436 JUMP JUMPDEST JUMPDEST PUSH1 0x20 ADD ADD MLOAD PUSH1 0xF8 SHR PUSH1 0xF8 SHL PUSH31 0xFFFFFFFFFFFFFFFFFFFFFFFFFFFFFFFFFFFFFFFFFFFFFFFFFFFFFFFFFFFFFF NOT AND DUP4 DUP3 DUP2 MLOAD DUP2 LT PUSH2 0x169 JUMPI PUSH2 0x168 PUSH2 0x436 JUMP JUMPDEST JUMPDEST PUSH1 0x20 ADD ADD MLOAD PUSH1 0xF8 SHR PUSH1 0xF8 SHL PUSH31 0xFFFFFFFFFFFFFFFFFFFFFFFFFFFFFFFFFFFFFFFFFFFFFFFFFFFFFFFFFFFFFF NOT AND EQ PUSH2 0x1A6 JUMPI PUSH0 SWAP4 POP POP POP POP PUSH2 0x1BB JUMP JUMPDEST DUP1 DUP1 PUSH1 0x1 ADD SWAP2 POP POP PUSH2 0x10D JUMP JUMPDEST POP PUSH1 0x1 SWAP3 POP POP POP JUMPDEST SWAP3 SWAP2 POP POP JUMP JUMPDEST PUSH0 DUP2 PUSH1 0x40 MLOAD PUSH1 0x20 ADD PUSH2 0x1D3 SWAP2 SWAP1 PUSH2 0x4B5 JUMP JUMPDEST PUSH1 0x40 MLOAD PUSH1 0x20 DUP2 DUP4 SUB SUB DUP2 MSTORE SWAP1 PUSH1 0x40 MSTORE DUP1 MLOAD SWAP1 PUSH1 0x20 ADD KECCAK256 DUP4 PUSH1 0x40 MLOAD PUSH1 0x20 ADD PUSH2 0x1FA SWAP2 SWAP1 PUSH2 0x4B5 JUMP JUMPDEST PUSH1 0x40 MLOAD PUSH1 0x20 DUP2 DUP4 SUB SUB DUP2 MSTORE SWAP1 PUSH1 0x40 MSTORE DUP1 MLOAD SWAP1 PUSH1 0x20 ADD KECCAK256 EQ SWAP1 POP SWAP3 SWAP2 POP POP JUMP JUMPDEST PUSH0 DUP2 MLOAD DUP4 MLOAD EQ DUP1 ISZERO PUSH2 0x238 JUMPI POP DUP2 DUP1 MLOAD SWAP1 PUSH1 0x20 ADD KECCAK256 DUP4 DUP1 MLOAD SWAP1 PUSH1 0x20 ADD KECCAK256 EQ JUMPDEST SWAP1 POP SWAP3 SWAP2 POP POP JUMP JUMPDEST PUSH0 PUSH1 0x40 MLOAD SWAP1 POP SWAP1 JUMP JUMPDEST PUSH0 DUP1 REVERT JUMPDEST PUSH0 DUP1 REVERT JUMPDEST PUSH0 DUP1 REVERT JUMPDEST PUSH0 DUP1 REVERT JUMPDEST PUSH0 PUSH1 0x1F NOT PUSH1 0x1F DUP4 ADD AND SWAP1 POP SWAP2 SWAP1 POP JUMP JUMPDEST PUSH32 0x4E487B7100000000000000000000000000000000000000000000000000000000 PUSH0 MSTORE PUSH1 0x41 PUSH1 0x4 MSTORE PUSH1 0x24 PUSH0 REVERT JUMPDEST PUSH2 0x29F DUP3 PUSH2 0x259 JUMP JUMPDEST DUP2 ADD DUP2 DUP2 LT PUSH8 0xFFFFFFFFFFFFFFFF DUP3 GT OR ISZERO PUSH2 0x2BE JUMPI PUSH2 0x2BD PUSH2 0x269 JUMP JUMPDEST JUMPDEST DUP1 PUSH1 0x40 MSTORE POP POP POP JUMP JUMPDEST PUSH0 PUSH2 0x2D0 PUSH2 0x240 JUMP JUMPDEST SWAP1 POP PUSH2 0x2DC DUP3 DUP3 PUSH2 0x296 JUMP JUMPDEST SWAP2 SWAP1 POP JUMP JUMPDEST PUSH0 PUSH8 0xFFFFFFFFFFFFFFFF DUP3 GT ISZERO PUSH2 0x2FB JUMPI PUSH2 0x2FA PUSH2 0x269 JUMP JUMPDEST JUMPDEST PUSH2 0x304 DUP3 PUSH2 0x259 JUMP JUMPDEST SWAP1 POP PUSH1 0x20 DUP2 ADD SWAP1 POP SWAP2 SWAP1 POP JUMP JUMPDEST DUP3 DUP2 DUP4 CALLDATACOPY PUSH0 DUP4 DUP4 ADD MSTORE POP POP POP JUMP JUMPDEST PUSH0 PUSH2 0x331 PUSH2 0x32C DUP5 PUSH2 0x2E1 JUMP JUMPDEST PUSH2 0x2C7 JUMP JUMPDEST SWAP1 POP DUP3 DUP2 MSTORE PUSH1 0x20 DUP2 ADD DUP5 DUP5 DUP5 ADD GT ISZERO PUSH2 0x34D JUMPI PUSH2 0x34C PUSH2 0x255 JUMP JUMPDEST JUMPDEST PUSH2 0x358 DUP5 DUP3 DUP6 PUSH2 0x311 JUMP JUMPDEST POP SWAP4 SWAP3 POP POP POP JUMP JUMPDEST PUSH0 DUP3 PUSH1 0x1F DUP4 ADD SLT PUSH2 0x374 JUMPI PUSH2 0x373 PUSH2 0x251 JUMP JUMPDEST JUMPDEST DUP2 CALLDATALOAD PUSH2 0x384 DUP5 DUP3 PUSH1 0x20 DUP7 ADD PUSH2 0x31F JUMP JUMPDEST SWAP2 POP POP SWAP3 SWAP2 POP POP JUMP JUMPDEST PUSH0 DUP1 PUSH1 0x40 DUP4 DUP6 SUB SLT ISZERO PUSH2 0x3A3 JUMPI PUSH2 0x3A2 PUSH2 0x249 JUMP JUMPDEST JUMPDEST PUSH0 DUP4 ADD CALLDATALOAD PUSH8 0xFFFFFFFFFFFFFFFF DUP2 GT ISZERO PUSH2 0x3C0 JUMPI PUSH2 0x3BF PUSH2 0x24D JUMP JUMPDEST JUMPDEST PUSH2 0x3CC DUP6 DUP3 DUP7 ADD PUSH2 0x360 JUMP JUMPDEST SWAP3 POP POP PUSH1 0x20 DUP4 ADD CALLDATALOAD PUSH8 0xFFFFFFFFFFFFFFFF DUP2 GT ISZERO PUSH2 0x3ED JUMPI PUSH2 0x3EC PUSH2 0x24D JUMP JUMPDEST JUMPDEST PUSH2 0x3F9 DUP6 DUP3 DUP7 ADD PUSH2 0x360 JUMP JUMPDEST SWAP2 POP POP SWAP3 POP SWAP3 SWAP1 POP JUMP JUMPDEST PUSH0 DUP2 ISZERO ISZERO SWAP1 POP SWAP2 SWAP1 POP JUMP JUMPDEST PUSH2 0x417 DUP2 PUSH2 0x403 JUMP JUMPDEST DUP3 MSTORE POP POP JUMP JUMPDEST PUSH0 PUSH1 0x20 DUP3 ADD SWAP1 POP PUSH2 0x430 PUSH0 DUP4 ADD DUP5 PUSH2 0x40E JUMP JUMPDEST SWAP3 SWAP2 POP POP JUMP JUMPDEST PUSH32 0x4E487B7100000000000000000000000000000000000000000000000000000000 PUSH0 MSTORE PUSH1 0x32 PUSH1 0x4 MSTORE PUSH1 0x24 PUSH0 REVERT JUMPDEST PUSH0 DUP2 MLOAD SWAP1 POP SWAP2 SWAP1 POP JUMP JUMPDEST PUSH0 DUP2 SWAP1 POP SWAP3 SWAP2 POP POP JUMP JUMPDEST DUP3 DUP2 DUP4 MCOPY PUSH0 DUP4 DUP4 ADD MSTORE POP POP POP JUMP JUMPDEST PUSH0 PUSH2 0x48F DUP3 PUSH2 0x463 JUMP JUMPDEST PUSH2 0x499 DUP2 DUP6 PUSH2 0x46D JUMP JUMPDEST SWAP4 POP PUSH2 0x4A9 DUP2 DUP6 PUSH1 0x20 DUP7 ADD PUSH2 0x477 JUMP JUMPDEST DUP1 DUP5 ADD SWAP2 POP POP SWAP3 SWAP2 POP POP JUMP JUMPDEST PUSH0 PUSH2 0x4C0 DUP3 DUP5 PUSH2 0x485 JUMP JUMPDEST SWAP2 POP DUP2 SWAP1 POP SWAP3 SWAP2 POP POP JUMP INVALID LOG2 PUSH5 0x6970667358 0x22 SLT KECCAK256 0xDD PUSH22 0x6DAD76D0228F7414E9B67A26727F285F71AFE41BB7B5 0xB8 CALLDATASIZE SDIV 0xE9 0xB4 0xBF 0x1F SAR PUSH5 0x736F6C6343 STOP ADDMOD BYTE STOP CALLER "
		},
		"gasEstimates": {
			"creation": {
				"codeDepositCost": "256200",
				"executionCost": "298",
				"totalCost": "256498"
			},
			"external": {
				"compareByCharacters(string,string)": "infinite",
				"compareByHash(string,string)": "infinite",
				"compareWithOpenZeppelin(string,string)": "infinite"
			}
		},
		"methodIdentifiers": {
			"compareByCharacters(string,string)": "d42e5dc4",
			"compareByHash(string,string)": "e2a290ab",
			"compareWithOpenZeppelin(string,string)": "8ed70d56"
		}
	},
	"abi": [
		{
			"inputs": [
				{
					"internalType": "string",
					"name": "a",
					"type": "string"
				},
				{
					"internalType": "string",
					"name": "b",
					"type": "string"
				}
			],
			"name": "compareByCharacters",
			"outputs": [
				{
					"internalType": "bool",
					"name": "",
					"type": "bool"
				}
			],
			"stateMutability": "pure",
			"type": "function"
		},
		{
			"inputs": [
				{
					"internalType": "string",
					"name": "a",
					"type": "string"
				},
				{
					"internalType": "string",
					"name": "b",
					"type": "string"
				}
			],
			"name": "compareByHash",
			"outputs": [
				{
					"internalType": "bool",
					"name": "",
					"type": "bool"
				}
			],
			"stateMutability": "pure",
			"type": "function"
		},
		{
			"inputs": [
				{
					"internalType": "string",
					"name": "a",
					"type": "string"
				},
				{
					"internalType": "string",
					"name": "b",
					"type": "string"
				}
			],
			"name": "compareWithOpenZeppelin",
			"outputs": [
				{
					"internalType": "bool",
					"name": "",
					"type": "bool"
				}
			],
			"stateMutability": "pure",
			"type": "function"
		}
	]
}